{
  "_format": "hh-sol-artifact-1",
  "contractName": "ERC20",
  "sourceName": "contracts/Erc.sol",
  "abi": [
    {
      "inputs": [
        {
          "internalType": "string",
          "name": "name_",
          "type": "string"
        },
        {
          "internalType": "string",
          "name": "symbol_",
          "type": "string"
        },
        {
          "internalType": "uint256",
          "name": "initialSupply",
          "type": "uint256"
        },
        {
          "internalType": "address",
          "name": "shop",
          "type": "address"
        }
      ],
      "stateMutability": "nonpayable",
      "type": "constructor"
    },
    {
      "anonymous": false,
      "inputs": [
        {
          "indexed": true,
          "internalType": "address",
          "name": "owner",
          "type": "address"
        },
        {
          "indexed": true,
          "internalType": "address",
          "name": "to",
          "type": "address"
        },
        {
          "indexed": false,
          "internalType": "uint256",
          "name": "amount",
          "type": "uint256"
        }
      ],
      "name": "Approw",
      "type": "event"
    },
    {
      "anonymous": false,
      "inputs": [
        {
          "indexed": true,
          "internalType": "address",
          "name": "from",
          "type": "address"
        },
        {
          "indexed": true,
          "internalType": "address",
          "name": "to",
          "type": "address"
        },
        {
          "indexed": false,
          "internalType": "uint256",
          "name": "amount",
          "type": "uint256"
        }
      ],
      "name": "Transfer",
      "type": "event"
    },
    {
      "inputs": [
        {
          "internalType": "address",
          "name": "_owner",
          "type": "address"
        },
        {
          "internalType": "address",
          "name": "spender",
          "type": "address"
        }
      ],
      "name": "allowance",
      "outputs": [
        {
          "internalType": "uint256",
          "name": "",
          "type": "uint256"
        }
      ],
      "stateMutability": "view",
      "type": "function"
    },
    {
      "inputs": [
        {
          "internalType": "address",
          "name": "spender",
          "type": "address"
        },
        {
          "internalType": "uint256",
          "name": "amount",
          "type": "uint256"
        }
      ],
      "name": "approw",
      "outputs": [],
      "stateMutability": "nonpayable",
      "type": "function"
    },
    {
      "inputs": [
        {
          "internalType": "address",
          "name": "account",
          "type": "address"
        }
      ],
      "name": "balanceOf",
      "outputs": [
        {
          "internalType": "uint256",
          "name": "",
          "type": "uint256"
        }
      ],
      "stateMutability": "view",
      "type": "function"
    },
    {
      "inputs": [
        {
          "internalType": "address",
          "name": "_from",
          "type": "address"
        },
        {
          "internalType": "uint256",
          "name": "amount",
          "type": "uint256"
        }
      ],
      "name": "burn",
      "outputs": [],
      "stateMutability": "nonpayable",
      "type": "function"
    },
    {
      "inputs": [],
      "name": "decimals",
      "outputs": [
        {
          "internalType": "uint256",
          "name": "",
          "type": "uint256"
        }
      ],
      "stateMutability": "pure",
      "type": "function"
    },
    {
      "inputs": [
        {
          "internalType": "uint256",
          "name": "amount",
          "type": "uint256"
        },
        {
          "internalType": "address",
          "name": "shop",
          "type": "address"
        }
      ],
      "name": "mint",
      "outputs": [],
      "stateMutability": "nonpayable",
      "type": "function"
    },
    {
      "inputs": [],
      "name": "name",
      "outputs": [
        {
          "internalType": "string",
          "name": "",
          "type": "string"
        }
      ],
      "stateMutability": "view",
      "type": "function"
    },
    {
      "inputs": [],
      "name": "symbol",
      "outputs": [
        {
          "internalType": "string",
          "name": "",
          "type": "string"
        }
      ],
      "stateMutability": "view",
      "type": "function"
    },
    {
      "inputs": [],
      "name": "totalSupply",
      "outputs": [
        {
          "internalType": "uint256",
          "name": "",
          "type": "uint256"
        }
      ],
      "stateMutability": "view",
      "type": "function"
    },
    {
      "inputs": [
        {
          "internalType": "address",
          "name": "to",
          "type": "address"
        },
        {
          "internalType": "uint256",
          "name": "amount",
          "type": "uint256"
        }
      ],
      "name": "transfer",
      "outputs": [],
      "stateMutability": "nonpayable",
      "type": "function"
    },
    {
      "inputs": [
        {
          "internalType": "address",
          "name": "sender",
          "type": "address"
        },
        {
          "internalType": "address",
          "name": "recipient",
          "type": "address"
        },
        {
          "internalType": "uint256",
          "name": "amount",
          "type": "uint256"
        }
      ],
      "name": "transferFrom",
      "outputs": [],
      "stateMutability": "nonpayable",
      "type": "function"
    }
  ],
  "bytecode": "0x60806040523480156200001157600080fd5b5060405162001a6838038062001a68833981810160405281019062000037919062000475565b836004908162000048919062000766565b5082600590816200005a919062000766565b5033600160006101000a81548173ffffffffffffffffffffffffffffffffffffffff021916908373ffffffffffffffffffffffffffffffffffffffff160217905550620000ae8282620000b860201b60201c565b5050505062000968565b600160009054906101000a900473ffffffffffffffffffffffffffffffffffffffff1673ffffffffffffffffffffffffffffffffffffffff163373ffffffffffffffffffffffffffffffffffffffff16146200014b576040517f08c379a00000000000000000000000000000000000000000000000000000000081526004016200014290620008ae565b60405180910390fd5b6200015f600082846200023d60201b60201c565b81600260008373ffffffffffffffffffffffffffffffffffffffff1673ffffffffffffffffffffffffffffffffffffffff1681526020019081526020016000206000828254620001b09190620008ff565b9250508190555081600080828254620001ca9190620008ff565b925050819055508073ffffffffffffffffffffffffffffffffffffffff16600073ffffffffffffffffffffffffffffffffffffffff167fddf252ad1be2c89b69c2b068fc378daa952ba7f163c4a11628f55a4df523b3ef846040516200023191906200094b565b60405180910390a35050565b505050565b6000604051905090565b600080fd5b600080fd5b600080fd5b600080fd5b6000601f19601f8301169050919050565b7f4e487b7100000000000000000000000000000000000000000000000000000000600052604160045260246000fd5b620002ab8262000260565b810181811067ffffffffffffffff82111715620002cd57620002cc62000271565b5b80604052505050565b6000620002e262000242565b9050620002f08282620002a0565b919050565b600067ffffffffffffffff82111562000313576200031262000271565b5b6200031e8262000260565b9050602081019050919050565b60005b838110156200034b5780820151818401526020810190506200032e565b60008484015250505050565b60006200036e6200036884620002f5565b620002d6565b9050828152602081018484840111156200038d576200038c6200025b565b5b6200039a8482856200032b565b509392505050565b600082601f830112620003ba57620003b962000256565b5b8151620003cc84826020860162000357565b91505092915050565b6000819050919050565b620003ea81620003d5565b8114620003f657600080fd5b50565b6000815190506200040a81620003df565b92915050565b600073ffffffffffffffffffffffffffffffffffffffff82169050919050565b60006200043d8262000410565b9050919050565b6200044f8162000430565b81146200045b57600080fd5b50565b6000815190506200046f8162000444565b92915050565b600080600080608085870312156200049257620004916200024c565b5b600085015167ffffffffffffffff811115620004b357620004b262000251565b5b620004c187828801620003a2565b945050602085015167ffffffffffffffff811115620004e557620004e462000251565b5b620004f387828801620003a2565b93505060406200050687828801620003f9565b925050606062000519878288016200045e565b91505092959194509250565b600081519050919050565b7f4e487b7100000000000000000000000000000000000000000000000000000000600052602260045260246000fd5b600060028204905060018216806200057857607f821691505b6020821081036200058e576200058d62000530565b5b50919050565b60008190508160005260206000209050919050565b60006020601f8301049050919050565b600082821b905092915050565b600060088302620005f87fffffffffffffffffffffffffffffffffffffffffffffffffffffffffffffffff82620005b9565b620006048683620005b9565b95508019841693508086168417925050509392505050565b6000819050919050565b600062000647620006416200063b84620003d5565b6200061c565b620003d5565b9050919050565b6000819050919050565b620006638362000626565b6200067b62000672826200064e565b848454620005c6565b825550505050565b600090565b6200069262000683565b6200069f81848462000658565b505050565b5b81811015620006c757620006bb60008262000688565b600181019050620006a5565b5050565b601f8211156200071657620006e08162000594565b620006eb84620005a9565b81016020851015620006fb578190505b620007136200070a85620005a9565b830182620006a4565b50505b505050565b600082821c905092915050565b60006200073b600019846008026200071b565b1980831691505092915050565b600062000756838362000728565b9150826002028217905092915050565b620007718262000525565b67ffffffffffffffff8111156200078d576200078c62000271565b5b6200079982546200055f565b620007a6828285620006cb565b600060209050601f831160018114620007de5760008415620007c9578287015190505b620007d5858262000748565b86555062000845565b601f198416620007ee8662000594565b60005b828110156200081857848901518255600182019150602085019450602081019050620007f1565b8683101562000838578489015162000834601f89168262000728565b8355505b6001600288020188555050505b505050505050565b600082825260208201905092915050565b7f4e6f7420616e206f776e65722100000000000000000000000000000000000000600082015250565b600062000896600d836200084d565b9150620008a3826200085e565b602082019050919050565b60006020820190508181036000830152620008c98162000887565b9050919050565b7f4e487b7100000000000000000000000000000000000000000000000000000000600052601160045260246000fd5b60006200090c82620003d5565b91506200091983620003d5565b9250828201905080821115620009345762000933620008d0565b5b92915050565b6200094581620003d5565b82525050565b60006020820190506200096260008301846200093a565b92915050565b6110f080620009786000396000f3fe608060405234801561001057600080fd5b50600436106100a95760003560e01c806370a082311161007157806370a082311461014057806394bf804d1461017057806395d89b411461018c5780639dc29fac146101aa578063a9059cbb146101c6578063dd62ed3e146101e2576100a9565b806306fdde03146100ae57806318160ddd146100cc5780631cc3f95e146100ea57806323b872dd14610106578063313ce56714610122575b600080fd5b6100b6610212565b6040516100c39190610c5a565b60405180910390f35b6100d46102a4565b6040516100e19190610c95565b60405180910390f35b61010460048036038101906100ff9190610d3f565b6102ad565b005b610120600480360381019061011b9190610d7f565b6102bc565b005b61012a61057e565b6040516101379190610c95565b60405180910390f35b61015a60048036038101906101559190610dd2565b610587565b6040516101679190610c95565b60405180910390f35b61018a60048036038101906101859190610dff565b6105d0565b005b610194610744565b6040516101a19190610c5a565b60405180910390f35b6101c460048036038101906101bf9190610d3f565b6107d6565b005b6101e060048036038101906101db9190610d3f565b6108e4565b005b6101fc60048036038101906101f79190610e3f565b610a53565b6040516102099190610c95565b60405180910390f35b60606004805461022190610eae565b80601f016020809104026020016040519081016040528092919081815260200182805461024d90610eae565b801561029a5780601f1061026f5761010080835404028352916020019161029a565b820191906000526020600020905b81548152906001019060200180831161027d57829003601f168201915b5050505050905090565b60008054905090565b6102b8338383610ada565b5050565b8281806102c883610587565b1015610309576040517f08c379a000000000000000000000000000000000000000000000000000000000815260040161030090610f2b565b60405180910390fd5b610314858585610bc5565b82600360008773ffffffffffffffffffffffffffffffffffffffff1673ffffffffffffffffffffffffffffffffffffffff16815260200190815260200160002060008673ffffffffffffffffffffffffffffffffffffffff1673ffffffffffffffffffffffffffffffffffffffff1681526020019081526020016000205410156103d3576040517f08c379a00000000000000000000000000000000000000000000000000000000081526004016103ca90610f97565b60405180910390fd5b82600360008773ffffffffffffffffffffffffffffffffffffffff1673ffffffffffffffffffffffffffffffffffffffff16815260200190815260200160002060003373ffffffffffffffffffffffffffffffffffffffff1673ffffffffffffffffffffffffffffffffffffffff168152602001908152602001600020600082825461045f9190610fe6565b9250508190555082600260008773ffffffffffffffffffffffffffffffffffffffff1673ffffffffffffffffffffffffffffffffffffffff16815260200190815260200160002060008282546104b59190610fe6565b9250508190555082600260008673ffffffffffffffffffffffffffffffffffffffff1673ffffffffffffffffffffffffffffffffffffffff168152602001908152602001600020600082825461050b919061101a565b925050819055508373ffffffffffffffffffffffffffffffffffffffff168573ffffffffffffffffffffffffffffffffffffffff167fddf252ad1be2c89b69c2b068fc378daa952ba7f163c4a11628f55a4df523b3ef8560405161056f9190610c95565b60405180910390a35050505050565b60006012905090565b6000600260008373ffffffffffffffffffffffffffffffffffffffff1673ffffffffffffffffffffffffffffffffffffffff168152602001908152602001600020549050919050565b600160009054906101000a900473ffffffffffffffffffffffffffffffffffffffff1673ffffffffffffffffffffffffffffffffffffffff163373ffffffffffffffffffffffffffffffffffffffff1614610660576040517f08c379a00000000000000000000000000000000000000000000000000000000081526004016106579061109a565b60405180910390fd5b61066c60008284610bc5565b81600260008373ffffffffffffffffffffffffffffffffffffffff1673ffffffffffffffffffffffffffffffffffffffff16815260200190815260200160002060008282546106bb919061101a565b92505081905550816000808282546106d3919061101a565b925050819055508073ffffffffffffffffffffffffffffffffffffffff16600073ffffffffffffffffffffffffffffffffffffffff167fddf252ad1be2c89b69c2b068fc378daa952ba7f163c4a11628f55a4df523b3ef846040516107389190610c95565b60405180910390a35050565b60606005805461075390610eae565b80601f016020809104026020016040519081016040528092919081815260200182805461077f90610eae565b80156107cc5780601f106107a1576101008083540402835291602001916107cc565b820191906000526020600020905b8154815290600101906020018083116107af57829003601f168201915b5050505050905090565b600160009054906101000a900473ffffffffffffffffffffffffffffffffffffffff1673ffffffffffffffffffffffffffffffffffffffff163373ffffffffffffffffffffffffffffffffffffffff1614610866576040517f08c379a000000000000000000000000000000000000000000000000000000000815260040161085d9061109a565b60405180910390fd5b61087282600083610bc5565b80600260008473ffffffffffffffffffffffffffffffffffffffff1673ffffffffffffffffffffffffffffffffffffffff16815260200190815260200160002060008282546108c19190610fe6565b92505081905550806000808282546108d99190610fe6565b925050819055505050565b3381806108f083610587565b1015610931576040517f08c379a000000000000000000000000000000000000000000000000000000000815260040161092890610f2b565b60405180910390fd5b61093c338585610bc5565b82600260003373ffffffffffffffffffffffffffffffffffffffff1673ffffffffffffffffffffffffffffffffffffffff168152602001908152602001600020600082825461098b9190610fe6565b9250508190555082600260008673ffffffffffffffffffffffffffffffffffffffff1673ffffffffffffffffffffffffffffffffffffffff16815260200190815260200160002060008282546109e1919061101a565b925050819055508373ffffffffffffffffffffffffffffffffffffffff163373ffffffffffffffffffffffffffffffffffffffff167fddf252ad1be2c89b69c2b068fc378daa952ba7f163c4a11628f55a4df523b3ef85604051610a459190610c95565b60405180910390a350505050565b6000600360008473ffffffffffffffffffffffffffffffffffffffff1673ffffffffffffffffffffffffffffffffffffffff16815260200190815260200160002060008373ffffffffffffffffffffffffffffffffffffffff1673ffffffffffffffffffffffffffffffffffffffff16815260200190815260200160002054905092915050565b80600360008573ffffffffffffffffffffffffffffffffffffffff1673ffffffffffffffffffffffffffffffffffffffff16815260200190815260200160002060008473ffffffffffffffffffffffffffffffffffffffff1673ffffffffffffffffffffffffffffffffffffffff168152602001908152602001600020819055508173ffffffffffffffffffffffffffffffffffffffff168373ffffffffffffffffffffffffffffffffffffffff167faff3b47cb5197ddf5bcfe2c3d50e6d50191056a71b3685eead9df399d9b4b05883604051610bb89190610c95565b60405180910390a3505050565b505050565b600081519050919050565b600082825260208201905092915050565b60005b83811015610c04578082015181840152602081019050610be9565b60008484015250505050565b6000601f19601f8301169050919050565b6000610c2c82610bca565b610c368185610bd5565b9350610c46818560208601610be6565b610c4f81610c10565b840191505092915050565b60006020820190508181036000830152610c748184610c21565b905092915050565b6000819050919050565b610c8f81610c7c565b82525050565b6000602082019050610caa6000830184610c86565b92915050565b600080fd5b600073ffffffffffffffffffffffffffffffffffffffff82169050919050565b6000610ce082610cb5565b9050919050565b610cf081610cd5565b8114610cfb57600080fd5b50565b600081359050610d0d81610ce7565b92915050565b610d1c81610c7c565b8114610d2757600080fd5b50565b600081359050610d3981610d13565b92915050565b60008060408385031215610d5657610d55610cb0565b5b6000610d6485828601610cfe565b9250506020610d7585828601610d2a565b9150509250929050565b600080600060608486031215610d9857610d97610cb0565b5b6000610da686828701610cfe565b9350506020610db786828701610cfe565b9250506040610dc886828701610d2a565b9150509250925092565b600060208284031215610de857610de7610cb0565b5b6000610df684828501610cfe565b91505092915050565b60008060408385031215610e1657610e15610cb0565b5b6000610e2485828601610d2a565b9250506020610e3585828601610cfe565b9150509250929050565b60008060408385031215610e5657610e55610cb0565b5b6000610e6485828601610cfe565b9250506020610e7585828601610cfe565b9150509250929050565b7f4e487b7100000000000000000000000000000000000000000000000000000000600052602260045260246000fd5b60006002820490506001821680610ec657607f821691505b602082108103610ed957610ed8610e7f565b5b50919050565b7f4e6f7420656e6f75676820746f6b656e73210000000000000000000000000000600082015250565b6000610f15601283610bd5565b9150610f2082610edf565b602082019050919050565b60006020820190508181036000830152610f4481610f08565b9050919050565b7f436865636b20616c6c6f77616e63652100000000000000000000000000000000600082015250565b6000610f81601083610bd5565b9150610f8c82610f4b565b602082019050919050565b60006020820190508181036000830152610fb081610f74565b9050919050565b7f4e487b7100000000000000000000000000000000000000000000000000000000600052601160045260246000fd5b6000610ff182610c7c565b9150610ffc83610c7c565b925082820390508181111561101457611013610fb7565b5b92915050565b600061102582610c7c565b915061103083610c7c565b925082820190508082111561104857611047610fb7565b5b92915050565b7f4e6f7420616e206f776e65722100000000000000000000000000000000000000600082015250565b6000611084600d83610bd5565b915061108f8261104e565b602082019050919050565b600060208201905081810360008301526110b381611077565b905091905056fea2646970667358221220e5c8b0972e552748513e134754abcf78b9ead261e94fb525e8f49e4acc42bc6c64736f6c63430008120033",
  "linkReferences": {},
  "deployedLinkReferences": {}
}